{
  "contractName": "Shopping",
  "abi": [
    {
      "constant": true,
      "inputs": [
        {
          "name": "",
          "type": "address"
        }
      ],
      "name": "sellers",
      "outputs": [
        {
          "name": "",
          "type": "bool"
        }
      ],
      "payable": false,
      "stateMutability": "view",
      "type": "function"
    },
    {
      "constant": true,
      "inputs": [],
      "name": "productsCount",
      "outputs": [
        {
          "name": "",
          "type": "uint256"
        }
      ],
      "payable": false,
      "stateMutability": "view",
      "type": "function"
    },
    {
      "constant": true,
      "inputs": [
        {
          "name": "",
          "type": "address"
        },
        {
          "name": "",
          "type": "uint256"
        }
      ],
      "name": "sellersProductsList",
      "outputs": [
        {
          "name": "id",
          "type": "bytes32"
        },
        {
          "name": "price",
          "type": "uint256"
        }
      ],
      "payable": false,
      "stateMutability": "view",
      "type": "function"
    },
    {
      "constant": true,
      "inputs": [],
      "name": "admin",
      "outputs": [
        {
          "name": "",
          "type": "address"
        }
      ],
      "payable": false,
      "stateMutability": "view",
      "type": "function"
    },
    {
      "inputs": [],
      "payable": false,
      "stateMutability": "nonpayable",
      "type": "constructor"
    },
    {
      "constant": false,
      "inputs": [
        {
          "name": "addressOfSeller",
          "type": "address"
        }
      ],
      "name": "addSeller",
      "outputs": [],
      "payable": false,
      "stateMutability": "nonpayable",
      "type": "function"
    },
    {
      "constant": false,
      "inputs": [
        {
          "name": "_id",
          "type": "bytes32"
        },
        {
          "name": "_price",
          "type": "uint256"
        }
      ],
      "name": "addProduct",
      "outputs": [],
      "payable": false,
      "stateMutability": "nonpayable",
      "type": "function"
    },
    {
      "constant": false,
      "inputs": [
        {
          "name": "_id",
          "type": "bytes32"
        },
        {
          "name": "_seller",
          "type": "address"
        }
      ],
      "name": "buyContent",
      "outputs": [],
      "payable": true,
      "stateMutability": "payable",
      "type": "function"
    },
    {
      "constant": true,
      "inputs": [],
      "name": "getContentCount",
      "outputs": [
        {
          "name": "",
          "type": "uint256"
        }
      ],
      "payable": false,
      "stateMutability": "view",
      "type": "function"
    },
    {
      "constant": true,
      "inputs": [
        {
          "name": "_buyer",
          "type": "address"
        },
        {
          "name": "_id",
          "type": "bytes32"
        }
      ],
      "name": "checkIfProductPurchased",
      "outputs": [
        {
          "name": "",
          "type": "bool"
        }
      ],
      "payable": false,
      "stateMutability": "view",
      "type": "function"
    }
  ],
  "bytecode": "0x60806040526000805460ff1916905534801561001a57600080fd5b5060008054610100330261010060a860020a03199091161790556105c6806100436000396000f3006080604052600436106100985763ffffffff7c0100000000000000000000000000000000000000000000000000000000600035041663194c9d2e811461009d5780636d47ab72146100ba57806374449ca4146100ef578063c5122e8814610116578063cfd175db1461013a578063d93fabfa14610151578063e0df7bb614610172578063e2fa3c0e14610187578063f851a440146101c4575b600080fd5b3480156100a957600080fd5b506100b86004356024356101f5565b005b3480156100c657600080fd5b506100db600160a060020a036004351661029d565b604080519115158252519081900360200190f35b3480156100fb57600080fd5b506101046102b2565b60408051918252519081900360200190f35b34801561012257600080fd5b506100db600160a060020a03600435166024356102b8565b6100b8600435600160a060020a036024351661032b565b34801561015d57600080fd5b506100b8600160a060020a03600435166103fb565b34801561017e57600080fd5b5061010461043e565b34801561019357600080fd5b506101ab600160a060020a0360043516602435610444565b6040805192835260208301919091528051918290030190f35b3480156101d057600080fd5b506101d961047f565b60408051600160a060020a039092168252519081900360200190f35b6101fd610583565b33600090815260016020526040812054819060ff16151561021d57600080fd5b60408051808201825286815260208082018790523360008181526002909252929020909450925061024e9086610493565b90508015156102965781546001818101845560008481526020908190208651600290940201928355850151918101919091556004546102929163ffffffff61053c16565b6004555b5050505050565b60016020526000908152604090205460ff1681565b60045490565b600160a060020a0382166000908152600360205260408120815b815481101561031e57815484908390839081106102eb57fe5b60009182526020909120015414156103065760019250610323565b61031781600163ffffffff61053c16565b90506102d2565b600092505b505092915050565b600080548190819060ff161561034057600080fd5b6000805460ff191660011790556103578486610493565b92508215610098573483116100985761036f8561054f565b829150610382348363ffffffff61057116565b604051909150339082156108fc029083906000818181858888f193505050501580156103b2573d6000803e3d6000fd5b50604051600160a060020a0385169083156108fc029084906000818181858888f193505050501580156103e9573d6000803e3d6000fd5b5050506000805460ff19169055505050565b6000546101009004600160a060020a0316331461041757600080fd5b600160a060020a03166000908152600160208190526040909120805460ff19169091179055565b60045481565b60026020528160005260406000208181548110151561045f57fe5b600091825260209091206002909102018054600190910154909250905082565b6000546101009004600160a060020a031681565b60008060006104a0610583565b600160a060020a0386166000908152600260205260408120935091505b825482101561052e5782828154811015156104d457fe5b60009182526020918290206040805180820190915260029092020180548083526001909101549282019290925291508514156105165780602001519350610533565b61052782600163ffffffff61053c16565b91506104bd565b600093505b50505092915050565b8181018281101561054957fe5b92915050565b3360009081526003602090815260408220805460018101825590835291200155565b60008282111561057d57fe5b50900390565b6040805180820190915260008082526020820152905600a165627a7a7230582008aa9eb78888862e550605a34c72adcf9e87c72cdecf307e97c9d1d8fbc8df470029",
  "source": "/**\n * @title Shopping\n * @section DESCRIPTION\n * Simple shopping operations\n * Deployed at https://rinkeby.etherscan.io/address/0x14c200ef28c6de1e061096e827be85639a591628\n */\n\nimport \"./ReentrancyGuard.sol\";\nimport \"./SafeMath.sol\";\n\npragma solidity ^0.4.24;\n\ncontract Shopping  is ReentrancyGuard {\n\n    using SafeMath for uint256;\n\n    struct Product {\n        bytes32 id;\n        uint256 price;\n    }\n    \n    address public admin;\n    mapping(address => bool) public sellers;\n    mapping (address => Product[]) public sellersProductsList;\n    mapping (address => bytes32[]) private buyersProductList;\n    uint256 public productsCount;\n    \n    modifier isAdmin() {\n        require(msg.sender == admin);\n        _;\n    }\n    \n    modifier isSeller() {\n        require(sellers[msg.sender]);\n        _;\n    }\n\n    /**\n    * @dev Setting admin\n    */    \n    constructor () public {\n        admin = msg.sender;\n    }\n\n    /**\n    * @dev Added seller as authorized to sell on this platform\n    * @param addressOfSeller address of the seller\n    */    \n    function addSeller(address addressOfSeller) isAdmin public {\n        sellers[addressOfSeller] = true;\n    }\n    \n    /**\n    * @dev Check if the product exsists in the list of products\n    * @param _seller address of the registered seller\n    * @param _id id of the registered product\n    * @return uint256 price of the product if it does not exist it returns 0\n    */ \n    function checkIfProductExists(address _seller, bytes32 _id) private view returns(uint256) {\n        Product[] storage sellersProducts = sellersProductsList[_seller];\n         for(uint256 i = 0; i < sellersProducts.length; i = i.add(1)) {\n            Product memory existingProdcut = sellersProducts[i];\n            if(existingProdcut.id == _id)\n                return existingProdcut.price;\n        }\n        return 0;\n    }\n    \n    /**\n    * @dev Adding buyer to the complete list\n    * @param _id id of the product bought by the buyer\n    */\n    function addBuyer(bytes32 _id) private {\n        bytes32[] storage buyerProdcuts = buyersProductList[msg.sender];\n        buyerProdcuts.push(_id);\n    }\n\n    /**\n    * @dev Add products to the list of the products of the seller\n    * @param _id id of the product bought by the buyer\n    */\n    function addProduct(bytes32 _id, uint256 _price) isSeller public {\n        Product memory newProduct = Product({ id: _id, price: _price });\n        Product[] storage sellersProducts = sellersProductsList[msg.sender];\n        uint256 doesItHaveAPrice = checkIfProductExists(msg.sender, _id);\n        \n        if(doesItHaveAPrice == 0) {\n            sellersProducts.push(newProduct);\n            productsCount = productsCount.add(1);\n        }\n    }\n    \n    /**\n    * @dev Buying contents from the seller\n    * @param _id id of the product bought by the buyer\n    * @param _seller seller from whom the buyer wants to buy the product\n    */\n    function buyContent(bytes32 _id, address _seller) nonReentrant payable public {\n        uint256 price = checkIfProductExists(_seller, _id);\n        if(price != 0) {\n            if(msg.value >= price) {\n                addBuyer(_id);\n                uint256 paymentForProduct = price;\n                uint256 balanceToBeReturned = msg.value.sub(price);\n                msg.sender.transfer(balanceToBeReturned);\n                _seller.transfer(paymentForProduct);\n            }\n            \n            else {\n                revert();\n            }\n        }\n        else {\n            revert();\n        }\n    }\n    \n    /**\n    * @dev Getting the count of the products added to the system\n    * @return uint256 product count\n    */\n    function getContentCount() public view returns(uint256) {\n        return productsCount;\n    }\n    \n    /**\n    * @dev Check if the buyer has purchased a particular product\n    * @param _id id of the product bought by the buyer\n    * @param _buyer address of the buyer\n    * @return bool if purchased or not\n    */\n    function checkIfProductPurchased(address _buyer, bytes32 _id) public view returns(bool) {\n        bytes32[] storage buyerProdcuts = buyersProductList[_buyer];\n        for(uint256 i = 0; i < buyerProdcuts.length; i = i.add(1)) {\n            if(buyerProdcuts[i] == _id) {\n                return true;\n            }\n        }\n        return false;\n    }\n}",
  "sourcePath": "/home/vagrant/code/programs/StreamSpace/truffle_project/contracts/Shopping.sol",
  "compiler": {
    "name": "solc",
    "version": "0.4.24+commit.e67f0147.Emscripten.clang"
  },
  "schemaVersion": "2.0.1",
  "updatedAt": "2018-10-26T10:01:23.731Z"
}